{
  "contractName": "Verifier",
  "abi": [
    {
      "anonymous": false,
      "inputs": [
        {
          "indexed": false,
          "name": "",
          "type": "string"
        }
      ],
      "name": "Verified",
      "type": "event"
    },
    {
      "constant": false,
      "inputs": [
        {
          "name": "a",
          "type": "uint256[2]"
        },
        {
          "name": "a_p",
          "type": "uint256[2]"
        },
        {
          "name": "b",
          "type": "uint256[2][2]"
        },
        {
          "name": "b_p",
          "type": "uint256[2]"
        },
        {
          "name": "c",
          "type": "uint256[2]"
        },
        {
          "name": "c_p",
          "type": "uint256[2]"
        },
        {
          "name": "h",
          "type": "uint256[2]"
        },
        {
          "name": "k",
          "type": "uint256[2]"
        },
        {
          "name": "input",
          "type": "uint256[2]"
        }
      ],
      "name": "verifyTx",
      "outputs": [
        {
          "name": "r",
          "type": "bool"
        }
      ],
      "payable": false,
      "stateMutability": "nonpayable",
      "type": "function"
    }
  ],
  "bytecode": "0x608060405234801561001057600080fd5b50611893806100206000396000f300608060405260043610610041576000357c0100000000000000000000000000000000000000000000000000000000900463ffffffff168063fe01ff6214610046575b600080fd5b34801561005257600080fd5b50610246600480360381019080806040019060028060200260405190810160405280929190826002602002808284378201915050505050919291929080604001906002806020026040519081016040528092919082600260200280828437820191505050505091929192908060800190600280602002604051908101604052809291906000905b8282101561011b5783826040020160028060200260405190810160405280929190826002602002808284378201915050505050815260200190600101906100d9565b505050509192919290806040019060028060200260405190810160405280929190826002602002808284378201915050505050919291929080604001906002806020026040519081016040528092919082600260200280828437820191505050505091929192908060400190600280602002604051908101604052809291908260026020028082843782019150505050509192919290806040019060028060200260405190810160405280929190826002602002808284378201915050505050919291929080604001906002806020026040519081016040528092919082600260200280828437820191505050505091929192908060400190600280602002604051908101604052809291908260026020028082843782019150505050509192919290505050610260565b604051808215151515815260200191505060405180910390f35b600061026a611674565b6060600060408051908101604052808e600060028110151561028857fe5b602002015181526020018e60016002811015156102a157fe5b6020020151815250836000018190525060408051908101604052808d60006002811015156102cb57fe5b602002015181526020018d60016002811015156102e457fe5b60200201518152508360200181905250604080519081016040528060408051908101604052808e600060028110151561031957fe5b6020020151600060028110151561032c57fe5b602002015181526020018e600060028110151561034557fe5b6020020151600160028110151561035857fe5b6020020151815250815260200160408051908101604052808e600160028110151561037f57fe5b6020020151600060028110151561039257fe5b602002015181526020018e60016002811015156103ab57fe5b602002015160016002811015156103be57fe5b6020020151815250815250836040018190525060408051908101604052808b60006002811015156103eb57fe5b602002015181526020018b600160028110151561040457fe5b6020020151815250836060018190525060408051908101604052808a600060028110151561042e57fe5b602002015181526020018a600160028110151561044757fe5b60200201518152508360800181905250604080519081016040528089600060028110151561047157fe5b6020020151815260200189600160028110151561048a57fe5b60200201518152508360a0018190525060408051908101604052808860006002811015156104b457fe5b602002015181526020018860016002811015156104cd57fe5b60200201518152508360e0018190525060408051908101604052808760006002811015156104f757fe5b6020020151815260200187600160028110151561051057fe5b60200201518152508360c0018190525060026040519080825280602002602001820160405280156105505781602001602082028038833980820191505090505b509150600090505b600281101561059d57848160028110151561056f57fe5b6020020151828281518110151561058257fe5b90602001906020020181815250508080600101915050610558565b60006105a9838561065b565b1415610646577f3f3cfdb26fb5f9f1786ab4f1a1f9cd4c0b5e726cbdfc26e495261731aad44e396040518080602001828103825260228152602001807f5472616e73616374696f6e207375636365737366756c6c79207665726966696581526020017f642e00000000000000000000000000000000000000000000000000000000000081525060400191505060405180910390a16001935061064b565b600093505b5050509998505050505050505050565b60006106656116ea565b61066d61175a565b6000610677610892565b92508260e0015151600187510114151561069057600080fd5b60408051908101604052806000815260200160008152509150600090505b855181101561070e576106ff826106fa8560e00151600185018151811015156106d357fe5b9060200190602002015189858151811015156106eb57fe5b90602001906020020151610ed1565b610f6d565b915080806001019150506106ae565b610734828460e00151600081518110151561072557fe5b90602001906020020151610f6d565b915061075d85600001518460000151610750886020015161102a565b6107586110c5565b61118f565b151561076c5760019350610889565b61079383602001518660400151610786886060015161102a565b61078e6110c5565b61118f565b15156107a25760029350610889565b6107c9856080015184604001516107bc8860a0015161102a565b6107c46110c5565b61118f565b15156107d85760039350610889565b6108248560c001518460600151610808610803866107fe8b600001518c60800151610f6d565b610f6d565b61102a565b8660a0015161081a886080015161102a565b8a6040015161129a565b15156108335760049350610889565b610875610844838760000151610f6d565b86604001516108568860e0015161102a565b8660c001516108688a6080015161102a565b6108706110c5565b61129a565b15156108845760059350610889565b600093505b50505092915050565b61089a6116ea565b604080519081016040528060408051908101604052807f1a962f9ff1c15a822a16a5f9fb6aa694eda2224074e386df1fda2f6eeab48be881526020017f2e64c271e5c95b53d13cde7fd2737b08f80e4c6e372d1afb96b2c1248ecd6bd1815250815260200160408051908101604052807f0461ad1c1ded4881a977bb7cb992563ecddd86449c86f8a5e0c994dfca275fe181526020017f12bdbe258c20cc3dd8891175ffa38ecd22956c04b83ad2f700e1762eb982dfcd815250815250816000018190525060408051908101604052807f2e0884905e9113523ee76804a2feee3a2d63d4bb1cb0c29b2ab703005d68669681526020017f2922cb73de60eb644b77dc859ba2fc42ca9590b175bb4a29ebd7306e9873b7048152508160200181905250604080519081016040528060408051908101604052807f2b10e7d3b9dcdf9f6eaaf2c563188cd6cd147cd8f9b1d527b2befa8744859fb181526020017f082d6c8a3682ec3fb0a74d82ecd79b36a4a1f5b9b7d39c15a5634049e980ce51815250815260200160408051908101604052807f070a6daec0743e8c6acc265d6b79bbe7617a9ebf8bb07bb11f39ff6677873d8981526020017f26de0d2ab7cbc2f53eed620473e546022f8f69d3fe19f4e117cb3c11b17077508152508152508160400181905250604080519081016040528060408051908101604052807e6766a7ef56531a03e552ca7b3682c3778d67916dbe07aa701ac5e6a17f160781526020017f10b2ea648c77898cd987652363aea6d9bd8fcc2dcda783b9958260535db4f773815250815260200160408051908101604052807f2457ccd5adfa854ecba6239326b2b1f5272d6283ee75e4b463a0e14caa8a1b6081526020017e19de1c44a6954dff607afeab668102aa4017e37ebc62ffe40ab961b5283ec4815250815250816060018190525060408051908101604052807f1743ddd5d72bd32fb3a45fe3eb4a0aeacf04f3045be5bb77c4144f284afd57d981526020017f1045a127010e80722e5800eadbeef8391d98585f3cdfe068bece49484bedb3218152508160800181905250604080519081016040528060408051908101604052807f16392339ab2279e539d3d5627356f57220155bc6e2cd6457db1871c6688ff9ed81526020017f1f54d05b665cd498f9d1d0925556fc7cbb5af7c8eb77cdd0ad579de6fc9b2390815250815260200160408051908101604052807f0efe0095687040b01491ca05df0f8e3b037f20a3c2e663bf0f17d46899cf736981526020017f0b6d74678614c8c079708e2092503ea102a60ced12f988c21083f1d36ba2bcc78152508152508160a00181905250604080519081016040528060408051908101604052807f25a1e24430b995268afce6bd132fcd59f77d90fa933bb1990d6108c91496a28e81526020017f21f36ff809cb2d68878c85bb7f0977756fc75c919da5a228f97391c5ead0ead7815250815260200160408051908101604052807f304daf9d8e4d1f06cde70fddcbd5fb828e0a54555546f4984f3cd2b95593e28781526020017f1a5eb50f79ef501ff77300968bb3d6e56b66e8e5bb1a3cba12a9b5d2d36f49628152508152508160c001819052506003604051908082528060200260200182016040528015610d6657816020015b610d53611774565b815260200190600190039081610d4b5790505b508160e0018190525060408051908101604052807f2f858697d9b9f3697cd1e5f15f9aeb6a1c1521876e4321d20199b9c68927620a81526020017f2fe8ef40a089ae0cf8012eb3cccd529880498e1578ed1d926e57d23d4b7a763b8152508160e001516000815181101515610dd757fe5b9060200190602002018190525060408051908101604052807f0ed5582b57e33bf7d1cb893f5ac8e52515deb99c1b68726760217b1cab080bf381526020017f1fd4805b7c89b0ece8e64ede950a1afabd05a4b80d7d473054e1114296594cfb8152508160e001516001815181101515610e4c57fe5b9060200190602002018190525060408051908101604052807f16701641ab72a2a78435b247e83d5bfdd65feba0dca867286ef7cc596536537b81526020017f1c806edb7a888c0b7bc14393992ec555b18100a08ddb8af0bd608a7595df32908152508160e001516002815181101515610ec157fe5b9060200190602002018190525090565b610ed961175a565b610ee161178e565b60008460000151826000600381101515610ef757fe5b6020020181815250508460200151826001600381101515610f1457fe5b60200201818152505083826002600381101515610f2d57fe5b602002018181525050606083608084600060076107d05a03f190508060008114610f5657610f58565bfe5b50801515610f6557600080fd5b505092915050565b610f7561175a565b610f7d6117b1565b60008460000151826000600481101515610f9357fe5b6020020181815250508460200151826001600481101515610fb057fe5b6020020181815250508360000151826002600481101515610fcd57fe5b6020020181815250508360200151826003600481101515610fea57fe5b60200201818152505060608360c084600060066107d05a03f19050806000811461101357611015565bfe5b5080151561102257600080fd5b505092915050565b61103261175a565b60007f30644e72e131a029b85045b68181585d97816a916871ca8d3c208c16d87cfd4790506000836000015114801561106f575060008360200151145b1561109257604080519081016040528060008152602001600081525091506110bf565b6040805190810160405280846000015181526020018285602001518115156110b657fe5b06830381525091505b50919050565b6110cd6117d4565b604080519081016040528060408051908101604052807f198e9393920d483a7260bfb731fb5d25f1aa493335a9e71297e485b7aef312c281526020017f1800deef121f1e76426a00665e5c4479674322d4f75edadd46debd5cd992f6ed815250815260200160408051908101604052807f090689d0585ff075ec9e99ad690c3395bc4b313370b38ef355acdadcd122975b81526020017f12c85ea5db8c6deb4aab71808dcb408fe3d1e7690c43d37b4ce6cc0166fa7daa815250815250905090565b600060608060026040519080825280602002602001820160405280156111cf57816020015b6111bc611774565b8152602001906001900390816111b45790505b509150600260405190808252806020026020018201604052801561120d57816020015b6111fa6117fb565b8152602001906001900390816111f25790505b5090508682600081518110151561122057fe5b906020019060200201819052508482600181518110151561123d57fe5b906020019060200201819052508581600081518110151561125a57fe5b906020019060200201819052508381600181518110151561127757fe5b9060200190602002018190525061128e82826113e1565b92505050949350505050565b600060608060036040519080825280602002602001820160405280156112da57816020015b6112c7611774565b8152602001906001900390816112bf5790505b509150600360405190808252806020026020018201604052801561131857816020015b6113056117fb565b8152602001906001900390816112fd5790505b5090508882600081518110151561132b57fe5b906020019060200201819052508682600181518110151561134857fe5b906020019060200201819052508482600281518110151561136557fe5b906020019060200201819052508781600081518110151561138257fe5b906020019060200201819052508581600181518110151561139f57fe5b90602001906020020181905250838160028151811015156113bc57fe5b906020019060200201819052506113d382826113e1565b925050509695505050505050565b6000806000606060006113f2611822565b60008751895114151561140457600080fd5b885195506006860294508460405190808252806020026020018201604052801561143d5781602001602082028038833980820191505090505b509350600092505b8583101561161a57888381518110151561145b57fe5b9060200190602002015160000151846000600686020181518110151561147d57fe5b9060200190602002018181525050888381518110151561149957fe5b906020019060200201516020015184600160068602018151811015156114bb57fe5b906020019060200201818152505087838151811015156114d757fe5b906020019060200201516000015160006002811015156114f357fe5b6020020151846002600686020181518110151561150c57fe5b9060200190602002018181525050878381518110151561152857fe5b9060200190602002015160000151600160028110151561154457fe5b6020020151846003600686020181518110151561155d57fe5b9060200190602002018181525050878381518110151561157957fe5b9060200190602002015160200151600060028110151561159557fe5b602002015184600460068602018151811015156115ae57fe5b906020019060200201818152505087838151811015156115ca57fe5b906020019060200201516020015160016002811015156115e657fe5b602002015184600560068602018151811015156115ff57fe5b90602001906020020181815250508280600101935050611445565b6020826020870260208701600060086107d05a03f19050806000811461163f57611641565bfe5b5080151561164e57600080fd5b600082600060018110151561165f57fe5b60200201511415965050505050505092915050565b61024060405190810160405280611689611774565b8152602001611696611774565b81526020016116a36117fb565b81526020016116b0611774565b81526020016116bd611774565b81526020016116ca611774565b81526020016116d7611774565b81526020016116e4611774565b81525090565b610320604051908101604052806116ff6117fb565b815260200161170c611774565b81526020016117196117fb565b81526020016117266117fb565b8152602001611733611774565b81526020016117406117fb565b815260200161174d6117fb565b8152602001606081525090565b604080519081016040528060008152602001600081525090565b604080519081016040528060008152602001600081525090565b606060405190810160405280600390602082028038833980820191505090505090565b608060405190810160405280600490602082028038833980820191505090505090565b6080604051908101604052806117e8611845565b81526020016117f5611845565b81525090565b60806040519081016040528061180f611845565b815260200161181c611845565b81525090565b602060405190810160405280600190602082028038833980820191505090505090565b60408051908101604052806002906020820280388339808201915050905050905600a165627a7a72305820d030f2abadf0090ac507186327a006cb680334a7b70887430fec4b14dfcd94de0029",
  "source": "// This file is MIT Licensed.\n//\n// Copyright 2017 Christian Reitwiessner\n// Permission is hereby granted, free of charge, to any person obtaining a copy of this software and associated documentation files (the \"Software\"), to deal in the Software without restriction, including without limitation the rights to use, copy, modify, merge, publish, distribute, sublicense, and/or sell copies of the Software, and to permit persons to whom the Software is furnished to do so, subject to the following conditions:\n// The above copyright notice and this permission notice shall be included in all copies or substantial portions of the Software.\n// THE SOFTWARE IS PROVIDED \"AS IS\", WITHOUT WARRANTY OF ANY KIND, EXPRESS OR IMPLIED, INCLUDING BUT NOT LIMITED TO THE WARRANTIES OF MERCHANTABILITY, FITNESS FOR A PARTICULAR PURPOSE AND NONINFRINGEMENT. IN NO EVENT SHALL THE AUTHORS OR COPYRIGHT HOLDERS BE LIABLE FOR ANY CLAIM, DAMAGES OR OTHER LIABILITY, WHETHER IN AN ACTION OF CONTRACT, TORT OR OTHERWISE, ARISING FROM, OUT OF OR IN CONNECTION WITH THE SOFTWARE OR THE USE OR OTHER DEALINGS IN THE SOFTWARE.\n\npragma solidity ^0.4.14;\nlibrary Pairing {\n    struct G1Point {\n        uint X;\n        uint Y;\n    }\n    // Encoding of field elements is: X[0] * z + X[1]\n    struct G2Point {\n        uint[2] X;\n        uint[2] Y;\n    }\n    /// @return the generator of G1\n    function P1() pure internal returns (G1Point) {\n        return G1Point(1, 2);\n    }\n    /// @return the generator of G2\n    function P2() pure internal returns (G2Point) {\n        return G2Point(\n            [11559732032986387107991004021392285783925812861821192530917403151452391805634,\n             10857046999023057135944570762232829481370756359578518086990519993285655852781],\n            [4082367875863433681332203403145435568316851327593401208105741076214120093531,\n             8495653923123431417604973247489272438418190587263600148770280649306958101930]\n        );\n    }\n    /// @return the negation of p, i.e. p.addition(p.negate()) should be zero.\n    function negate(G1Point p) pure internal returns (G1Point) {\n        // The prime q in the base field F_q for G1\n        uint q = 21888242871839275222246405745257275088696311157297823662689037894645226208583;\n        if (p.X == 0 && p.Y == 0)\n            return G1Point(0, 0);\n        return G1Point(p.X, q - (p.Y % q));\n    }\n    /// @return the sum of two points of G1\n    function addition(G1Point p1, G1Point p2) internal returns (G1Point r) {\n        uint[4] memory input;\n        input[0] = p1.X;\n        input[1] = p1.Y;\n        input[2] = p2.X;\n        input[3] = p2.Y;\n        bool success;\n        assembly {\n            success := call(sub(gas, 2000), 6, 0, input, 0xc0, r, 0x60)\n            // Use \"invalid\" to make gas estimation work\n            switch success case 0 { invalid() }\n        }\n        require(success);\n    }\n    /// @return the product of a point on G1 and a scalar, i.e.\n    /// p == p.scalar_mul(1) and p.addition(p) == p.scalar_mul(2) for all points p.\n    function scalar_mul(G1Point p, uint s) internal returns (G1Point r) {\n        uint[3] memory input;\n        input[0] = p.X;\n        input[1] = p.Y;\n        input[2] = s;\n        bool success;\n        assembly {\n            success := call(sub(gas, 2000), 7, 0, input, 0x80, r, 0x60)\n            // Use \"invalid\" to make gas estimation work\n            switch success case 0 { invalid() }\n        }\n        require (success);\n    }\n    /// @return the result of computing the pairing check\n    /// e(p1[0], p2[0]) *  .... * e(p1[n], p2[n]) == 1\n    /// For example pairing([P1(), P1().negate()], [P2(), P2()]) should\n    /// return true.\n    function pairing(G1Point[] p1, G2Point[] p2) internal returns (bool) {\n        require(p1.length == p2.length);\n        uint elements = p1.length;\n        uint inputSize = elements * 6;\n        uint[] memory input = new uint[](inputSize);\n        for (uint i = 0; i < elements; i++)\n        {\n            input[i * 6 + 0] = p1[i].X;\n            input[i * 6 + 1] = p1[i].Y;\n            input[i * 6 + 2] = p2[i].X[0];\n            input[i * 6 + 3] = p2[i].X[1];\n            input[i * 6 + 4] = p2[i].Y[0];\n            input[i * 6 + 5] = p2[i].Y[1];\n        }\n        uint[1] memory out;\n        bool success;\n        assembly {\n            success := call(sub(gas, 2000), 8, 0, add(input, 0x20), mul(inputSize, 0x20), out, 0x20)\n            // Use \"invalid\" to make gas estimation work\n            switch success case 0 { invalid() }\n        }\n        require(success);\n        return out[0] != 0;\n    }\n    /// Convenience method for a pairing check for two pairs.\n    function pairingProd2(G1Point a1, G2Point a2, G1Point b1, G2Point b2) internal returns (bool) {\n        G1Point[] memory p1 = new G1Point[](2);\n        G2Point[] memory p2 = new G2Point[](2);\n        p1[0] = a1;\n        p1[1] = b1;\n        p2[0] = a2;\n        p2[1] = b2;\n        return pairing(p1, p2);\n    }\n    /// Convenience method for a pairing check for three pairs.\n    function pairingProd3(\n            G1Point a1, G2Point a2,\n            G1Point b1, G2Point b2,\n            G1Point c1, G2Point c2\n    ) internal returns (bool) {\n        G1Point[] memory p1 = new G1Point[](3);\n        G2Point[] memory p2 = new G2Point[](3);\n        p1[0] = a1;\n        p1[1] = b1;\n        p1[2] = c1;\n        p2[0] = a2;\n        p2[1] = b2;\n        p2[2] = c2;\n        return pairing(p1, p2);\n    }\n    /// Convenience method for a pairing check for four pairs.\n    function pairingProd4(\n            G1Point a1, G2Point a2,\n            G1Point b1, G2Point b2,\n            G1Point c1, G2Point c2,\n            G1Point d1, G2Point d2\n    ) internal returns (bool) {\n        G1Point[] memory p1 = new G1Point[](4);\n        G2Point[] memory p2 = new G2Point[](4);\n        p1[0] = a1;\n        p1[1] = b1;\n        p1[2] = c1;\n        p1[3] = d1;\n        p2[0] = a2;\n        p2[1] = b2;\n        p2[2] = c2;\n        p2[3] = d2;\n        return pairing(p1, p2);\n    }\n}\ncontract Verifier {\n    using Pairing for *;\n    struct VerifyingKey {\n        Pairing.G2Point A;\n        Pairing.G1Point B;\n        Pairing.G2Point C;\n        Pairing.G2Point gamma;\n        Pairing.G1Point gammaBeta1;\n        Pairing.G2Point gammaBeta2;\n        Pairing.G2Point Z;\n        Pairing.G1Point[] IC;\n    }\n    struct Proof {\n        Pairing.G1Point A;\n        Pairing.G1Point A_p;\n        Pairing.G2Point B;\n        Pairing.G1Point B_p;\n        Pairing.G1Point C;\n        Pairing.G1Point C_p;\n        Pairing.G1Point K;\n        Pairing.G1Point H;\n    }\n    function verifyingKey() pure internal returns (VerifyingKey vk) {\n        vk.A = Pairing.G2Point([0x1a962f9ff1c15a822a16a5f9fb6aa694eda2224074e386df1fda2f6eeab48be8, 0x2e64c271e5c95b53d13cde7fd2737b08f80e4c6e372d1afb96b2c1248ecd6bd1], [0x461ad1c1ded4881a977bb7cb992563ecddd86449c86f8a5e0c994dfca275fe1, 0x12bdbe258c20cc3dd8891175ffa38ecd22956c04b83ad2f700e1762eb982dfcd]);\n        vk.B = Pairing.G1Point(0x2e0884905e9113523ee76804a2feee3a2d63d4bb1cb0c29b2ab703005d686696, 0x2922cb73de60eb644b77dc859ba2fc42ca9590b175bb4a29ebd7306e9873b704);\n        vk.C = Pairing.G2Point([0x2b10e7d3b9dcdf9f6eaaf2c563188cd6cd147cd8f9b1d527b2befa8744859fb1, 0x82d6c8a3682ec3fb0a74d82ecd79b36a4a1f5b9b7d39c15a5634049e980ce51], [0x70a6daec0743e8c6acc265d6b79bbe7617a9ebf8bb07bb11f39ff6677873d89, 0x26de0d2ab7cbc2f53eed620473e546022f8f69d3fe19f4e117cb3c11b1707750]);\n        vk.gamma = Pairing.G2Point([0x6766a7ef56531a03e552ca7b3682c3778d67916dbe07aa701ac5e6a17f1607, 0x10b2ea648c77898cd987652363aea6d9bd8fcc2dcda783b9958260535db4f773], [0x2457ccd5adfa854ecba6239326b2b1f5272d6283ee75e4b463a0e14caa8a1b60, 0x19de1c44a6954dff607afeab668102aa4017e37ebc62ffe40ab961b5283ec4]);\n        vk.gammaBeta1 = Pairing.G1Point(0x1743ddd5d72bd32fb3a45fe3eb4a0aeacf04f3045be5bb77c4144f284afd57d9, 0x1045a127010e80722e5800eadbeef8391d98585f3cdfe068bece49484bedb321);\n        vk.gammaBeta2 = Pairing.G2Point([0x16392339ab2279e539d3d5627356f57220155bc6e2cd6457db1871c6688ff9ed, 0x1f54d05b665cd498f9d1d0925556fc7cbb5af7c8eb77cdd0ad579de6fc9b2390], [0xefe0095687040b01491ca05df0f8e3b037f20a3c2e663bf0f17d46899cf7369, 0xb6d74678614c8c079708e2092503ea102a60ced12f988c21083f1d36ba2bcc7]);\n        vk.Z = Pairing.G2Point([0x25a1e24430b995268afce6bd132fcd59f77d90fa933bb1990d6108c91496a28e, 0x21f36ff809cb2d68878c85bb7f0977756fc75c919da5a228f97391c5ead0ead7], [0x304daf9d8e4d1f06cde70fddcbd5fb828e0a54555546f4984f3cd2b95593e287, 0x1a5eb50f79ef501ff77300968bb3d6e56b66e8e5bb1a3cba12a9b5d2d36f4962]);\n        vk.IC = new Pairing.G1Point[](3);\n        vk.IC[0] = Pairing.G1Point(0x2f858697d9b9f3697cd1e5f15f9aeb6a1c1521876e4321d20199b9c68927620a, 0x2fe8ef40a089ae0cf8012eb3cccd529880498e1578ed1d926e57d23d4b7a763b);\n        vk.IC[1] = Pairing.G1Point(0xed5582b57e33bf7d1cb893f5ac8e52515deb99c1b68726760217b1cab080bf3, 0x1fd4805b7c89b0ece8e64ede950a1afabd05a4b80d7d473054e1114296594cfb);\n        vk.IC[2] = Pairing.G1Point(0x16701641ab72a2a78435b247e83d5bfdd65feba0dca867286ef7cc596536537b, 0x1c806edb7a888c0b7bc14393992ec555b18100a08ddb8af0bd608a7595df3290);\n    }\n    function verify(uint[] input, Proof proof) internal returns (uint) {\n        VerifyingKey memory vk = verifyingKey();\n        require(input.length + 1 == vk.IC.length);\n        // Compute the linear combination vk_x\n        Pairing.G1Point memory vk_x = Pairing.G1Point(0, 0);\n        for (uint i = 0; i < input.length; i++)\n            vk_x = Pairing.addition(vk_x, Pairing.scalar_mul(vk.IC[i + 1], input[i]));\n        vk_x = Pairing.addition(vk_x, vk.IC[0]);\n        if (!Pairing.pairingProd2(proof.A, vk.A, Pairing.negate(proof.A_p), Pairing.P2())) return 1;\n        if (!Pairing.pairingProd2(vk.B, proof.B, Pairing.negate(proof.B_p), Pairing.P2())) return 2;\n        if (!Pairing.pairingProd2(proof.C, vk.C, Pairing.negate(proof.C_p), Pairing.P2())) return 3;\n        if (!Pairing.pairingProd3(\n            proof.K, vk.gamma,\n            Pairing.negate(Pairing.addition(vk_x, Pairing.addition(proof.A, proof.C))), vk.gammaBeta2,\n            Pairing.negate(vk.gammaBeta1), proof.B\n        )) return 4;\n        if (!Pairing.pairingProd3(\n                Pairing.addition(vk_x, proof.A), proof.B,\n                Pairing.negate(proof.H), vk.Z,\n                Pairing.negate(proof.C), Pairing.P2()\n        )) return 5;\n        return 0;\n    }\n    event Verified(string);\n    function verifyTx(\n            uint[2] a,\n            uint[2] a_p,\n            uint[2][2] b,\n            uint[2] b_p,\n            uint[2] c,\n            uint[2] c_p,\n            uint[2] h,\n            uint[2] k,\n            uint[2] input\n        ) public returns (bool r) {\n        Proof memory proof;\n        proof.A = Pairing.G1Point(a[0], a[1]);\n        proof.A_p = Pairing.G1Point(a_p[0], a_p[1]);\n        proof.B = Pairing.G2Point([b[0][0], b[0][1]], [b[1][0], b[1][1]]);\n        proof.B_p = Pairing.G1Point(b_p[0], b_p[1]);\n        proof.C = Pairing.G1Point(c[0], c[1]);\n        proof.C_p = Pairing.G1Point(c_p[0], c_p[1]);\n        proof.H = Pairing.G1Point(h[0], h[1]);\n        proof.K = Pairing.G1Point(k[0], k[1]);\n        uint[] memory inputValues = new uint[](input.length);\n        for(uint i = 0; i < input.length; i++){\n            inputValues[i] = input[i];\n        }\n        if (verify(inputValues, proof) == 0) {\n            emit Verified(\"Transaction successfully verified.\");\n            return true;\n        } else {\n            return false;\n        }\n    }\n}\n",
  "sourcePath": "/Users/rael/Documents/campusid/blockchain/demonstrateur/contracts/verifier.sol",
  "compiler": {
    "name": "solc",
    "version": "0.4.26+commit.4563c3fc.Emscripten.clang"
  },
  "schemaVersion": "3.3.4",
  "updatedAt": "2021-03-25T21:36:27.920Z",
  "networkType": "ethereum",
  "devdoc": {
    "methods": {}
  },
  "userdoc": {
    "methods": {}
  }
}